:100CCC002020202020202020202020202020202018
:100CDC0000323000570020202000543A0020200021
:100CEC004E4C0054656D703A004C696D3A0053657A
:100CFC00743A005965617220202020202020202089
:100D0C00202020004D6F6E74682020202020202091
:100D1C002020202000446179202020202020202029
:100D2C00202020202000486F7572202020202020B9
:100D3C00202020202020004D696E75746520202015
:100D4C00202020202020200054656D7020202020A1
:100D5C0020202020202020200056616C3A002020EA
:100D6C0020202020200020202020202020202000B7
:090D7C002020202020202020006E
:0B153700010800010E00011000C1823D
:10143C00D3EF9400EE940040147D6E7C00ED1D7093
:0D144C00011CED4C70F7EF1F70E61E80E3F1
:011459002270
:060E3E00AB1BAD1AAF1959
:020E4400AA05FD
:100E4600EF24D0FFE434078F82F583EAC39403507E
:100E56000C740C2AFAE582158270021583EA2401C5
:100E6600FFE433FE7C007D0312073A7D051207A1DD
:100E7600AC06AD07EA75F002A47A002BFFEA35F05E
:100E8600CF2DCF3CCF2582FDEF3583FCAE83E582A7
:100E96007802CEC313CE13D8F92DFBEC3EFA7C00B4
:100EA6007D64AF82AE8312074CC3EB9FFBEA9EFACA
:100EB600AE83AF827C017D9012074CEF2BFFEE3A9A
:100EC600CF2401CF3400FE7C007D0712074CAF050E
:050ED600EF70027F0730
:010EDB0022F4
:10106C00AB05AA07EB64027037EA7E0024D0FDEDD5
:10107C0054037013EF24D0FFEE3407FE7C007D6424
:10108C0012074CED4C7013EA24D0FFE43407FE7CBD
:10109C00017D9012074CED4C70037F1D227F1C22AA
:1010AC00EB6404600DEB64066008EB64096003BB41
:0810BC000B037F1E227F1F229F
:10000300E50860030201DBE510600302010730022B
:100013000F7BFF7A0C79CC7D017F011213B6C202EC
:100023007BFF7A0C79DD7D017F011213B6E519FBA5
:100033007A00752C027D037F011214D27B2D7D057E
:100043007F01121596E51AFB7A00752C027D067F57
:10005300011214D27B2D7D087F01121596E51BFB3F
:100063007A00752C027D097F011214D27BFF7A0C72
:1000730079E07D0C7F011213B6E51FFB7A00752C26
:10008300017D0D7F011214D27BFF7A0C79E27D0E84
:100093007F011213B6E51CFB7A00752C027D017FEC
:1000A300021214D27B3A7D037F02121596E51DFBE3
:1000B3007A00752C027D047F021214D27B3A7D06EE
:1000C3007F02121596E51EFB7A00752C027D077FD1
:1000D300021214D27BFF7A0C79E67D0A7F02121397
:1000E300B6E511FB7A00752C027D0C7F021214D247
:1000F3007B437D0E7F021215967BFF7A0C79E97D97
:100103000F02030830020F7BFF7A0C79CC7D017F4D
:10011300011213B6C2027BFF7A0C79EC7D017F01D9
:030123001213B6FE
:10012600E50A2430F527D394634003752763E52752
:0D013600FB7A00752C027D047F011214D2AB
:10014300E50D60047B5280027B207D077F01121541
:1001530096E50BFB7A00752C027D087F011214D201
:100163007B4D7D0A7F01121596E50CFB7A00752CF9
:10017300027D0B7F011214D27B447D0D7F0112158A
:10018300967BFF7A0C79E27D0E7F011213B67BFF1B
:100193007A0C79EF7D017F021213B6E511FB7A0029
:1001A300752C027D067F021214D27B437D087F02E9
:1001B3001215967BFF7A0C79F57D0A7F021213B62E
:1001C300E50FFB7A00752C027D0E7F021214D27BA1
:1001D300437D107F020215967BFF7A0C79FA7D012D
:1001E3007F011213B6E50E14601814601D1460220B
:1001F30014602714602C240570357BFF7A0C79FF7B
:1002030080267BFF7A0D7910801E7BFF7A0D792182
:1002130080167BFF7A0D7932800E7BFF7A0D79434E
:1002230080067BFF7A0D79547D057F011213B67B1F
:10023300FF7A0D79657D017F021213B6E50E146016
:100243004014605614606C1470030202CF147003E0
:100253000202E82405600302030D7BFF7A0C79DDBB
:100263007D057F021213B6E519FB7A00752C027D1A
:10027300077F021214D27BFF7A0D796A7D0902038C
:1002830008E51AFB7A00752C027D057F021214D251
:100293007BFF7A0D79727D07806BE51BFB7A007516
:1002A3002C027D057F021214D27BFF7A0D79727DB9
:1002B300078052E51CFB7A00752C027D057F021234
:1002C30014D27BFF7A0D79727D078039E51DFB7AA5
:1002D30000752C027D057F021214D27BFF7A0D7903
:1002E300727D078020E50FFB7A00752C027D057F68
:1002F300021214D27B437D077F021215967BFF7A8D
:0B0303000D797C7D087F021213B622EA
:100A0700121217EF7003020B9724FE60761470031F
:100A1700020AA3147003020B2524036003020B9739
:100A2700E5087006750801F50E22E4F508120E3E7A
:100A37008F1F120D85AD197F107E00121265AD1A3A
:100A47007F117E00121265AD1B7F127E00121265A8
:100A5700AD1F7F137E00121265AD1C7F147E00123E
:100A67001265AD1D7F157E00121265AD1E7F167EC5
:100A770000121265AD0FE4FFFE1212657F0A7E00B9
:100A870002143CE50864016003020B97050EE50EAE
:100A9700D394055003020B97E4F50E22E508640191
:100AA7006003020B97E50E14602314603014604155
:100AB70014604E14605B24056003020B970519E56B
:100AC70019D394635003020B97E4F51922051AE52D
:100AD7001AD3940C5003020B97751A0122AD1AAF63
:100AE7001912106CE51BC39F4004751B0122051BDF
:100AF70022051CE51CD394175003020B97E4F51C41
:100B070022051DE51DD3943B5003020B97E4F51D09
:100B170022050FE50FD394324076750F1422E508AE
:100B2700700FE51070047F0180027F008F10D202E2
:100B370022E50E14601B14602414603314603B1408
:100B470060432405704AE519700475196322151965
:100B570022E51AB40104751A0C22151A22E51BB4F2
:100B6700010AAD1AAF1912106C8F1B22151B22E553
:100B77001C7004751C1722151C22E51D7004751DB9
:100B87003B22151D22E50FB41404750F3222150FF1
:010B9700223B
:100B9800E4F521F522F523F524F525F5261215C9E6
:100BA80012154C1215BF1214961215C4E4FFFE124A
:100BB80011C38F0FE50FC394144007E50FD3943288
:100BC8004012750F1EAD0FE4FFFE1212657F0A7EFC
:100BD8000012143C7F107E001211C38F197F117E02
:100BE800001211C38F1A7F127E001211C38F1B7F50
:100BF800137E001211C38F1F7F147E001211C38F42
:100C08001C7F157E001211C38F1D7F167E001211E6
:100C1800C38F1EE519D39463401F751919751A06F9
:100C2800751B1E7B1E7D067F19120E448F1F751CB7
:100C38000A751D1EE4F51E8000120D851215CE12D0
:100C480010061210068F11AD0F12141D120A07E5B7
:100C580008704F0524E52470020523C3940AE52390
:100C680094004017E4F523F524120EDC120E3E8F93
:100C78001F1210068F11AD0F12141D0526E52670E0
:100C8800020525C3940AE52594004016E4F525F5E8
:100C980026F52A752B00752C09AB1BAD1AAF191256
:100CA800030E0522E52270020521C39402E5219472
:100CB800004008E4F521F5221200037F647E00124B
:040CC800143C8088D0
:06157100C2918F80D295AB
:081577007F027EEFDEFEDFFCC7
:01157F002249
:0A158C00C290121571C29502157786
:10145A00CFCDCFCECCCE12074C7C007D0A12074CE2
:04146A00ED2430FF3E
:0A146E00D290121571C29502157795
:10150B00AE07BE0104ED148006BE0209ED243F4474
:06151B0080FF12158C2276
:10154C007F3812158C7F0C12158C7F0612158C7F30
:04155C000102158CE7
:0A159600AC0312150BAF0402146E33
:0613B6008B288A29892A18
:1013BC0012150BE4FDAB28AA29A92A8D827583008E
:0C13CC001206B8FF600612146E0D80E9D6
:0113D80022F2
:0C135A007F0AEA24FFFDE434FFFC7E0063
:081366008E2D8F2E8C2F8D308F
:10136E007F017E00E4FBEBC39530E52F6480F874BB
:0E137E008098500AAC2DAD2E12073A0B80E875
:01138C00223E
:0414D2008A2A8B2BAC
:1014D60012150BAA2CEAD39400400D12135AAC2A0B
:0814E600AD2B12145A1A80ED1F
:0114EE0022DB
:1012AF0012150BC3EA64809480400B7F2B12146ECF
:1012BF008A178B18800E7F2D12146EC3E49BF518BE
:1012CF00E49AF517AA16EAD39400400D12135AACFC
:0912DF0017AD1812145A1A80ED23
:0112E80022E3
:0412E9008A458B4661
:1012ED0012150BAA47EAD3940040297F1012135C04
:1012FD00AC45AD46CFCDCFCECCCE12074CEF540F73
:10130D00FEC3940AEE5004243080022437FF1214D9
:04131D006E1A80D1F3
:0113210022A9
:041322008A4A8B4B1D
:1013260012150BAA4CEAD394004028EA24FFFDE4E8
:1013360034FFFC7F027E00121366AC4AAD4BCFCD64
:10134600CFCECCCE12074CEF54012430FF12146ED0
:031356001A80D228
:011359002271
:0515BA007F0102158C09
:09154200071919061E0A1E000219
:0515BF00C297C2B52235
:03116F0025F0FD6B
:02117200A907CB
:10117400E4FBD2977E007401A803088005C333CE34
:1011840033CED8F9FFE9F582EF558224FF92B4D229
:10119400B5C2B50BBB08DDE4FB7E007401A80308EF
:1011A4008005C333CE33CED8F9FFEDF582EF5582F7
:0E11B40024FF92B4D2B5C2B50BBB08DDC297C2
:0111C200220A
:0810C400C4540F75F00AA4FCEE
:0210CC00AD076E
:1010CE00E4F9430501D297FB7E007401A803088062
:1010DE0005C333CE33CED8F9FFEDF582EF5582241A
:1010EE00FF92B4C2B5D2B50BBB08DDE4FBD2B5C2DC
:1010FE00B530B40DA8037401088002C333D8FC4286
:0B110E00010BBB08E8C297C2B4AF01A0
:0111190022B3
:100D8500E4FD7F8E121172E51975F00A84C454F0E2
:100D9500FFE51975F00A84EF7F8C12116FE51A755E
:100DA500F00A84C454F0FFE51A75F00A84EF7F88D1
:100DB50012116FE51B75F00A84C454F0FFE51B752D
:100DC500F00A84EF25F0FD7F86121172E51C75F09F
:100DD5000A84C454F0FFE51C75F00A84EF25F0FD84
:100DE5007F84121172E51D75F00A84C454F0FFE585
:100DF5001D75F00A84EF25F0FD7F82121172E51E44
:100E050075F00A84C454F0FFE51E75F00A84EF25D9
:100E1500F0547FFD7F80121172E51F75F00A84C4BE
:100E250054F0FFE51F75F00A84EF25F0FD7F8A1267
:090E350011727D807F8E021172A2
:100EDC007F8C1210CCEF7F8C1210C4EF540F2CF5BA
:100EEC00197F881210CCEF7F881210C4EF540F2C8E
:100EFC00F51A7F861210CCEFC4540F75F00AA4FCBF
:100F0C007F861210CCEF540F2CF51B7F841210CC63
:100F1C00EFC4540F75F00AA4FC7F841210CCEF546C
:100F2C000F2CF51C7F821210CCEFC4540F75F00AF5
:100F3C00A4FC7F821210CCEF540F2CF51D7F801275
:100F4C0010CCEF547FFFC4540F75F00AA4FEEF547D
:100F5C000F2EF51E7F8A1210CCEFC4540F75F00AB9
:0D0F6C00A4FC7F8A1210CCEF540F2CF51F4F
:010F79002255
:10156000AE071FEE600A000000000000000080F0DF
:011570002258
:10147800D3EF9400EE940040147D787C00ED1D704D
:0D148800011CED4C70F7EF1F70E61E80E3B5
:011495002234
:10149600D2B200C2B27F32121560D2B27F061215E6
:0D14A60060A2B292007F2C121560A200B36C
:0114B3002216
:0214EF00AD0747
:1014F100E4FBC2B20000ED1392B27F06121560D276
:09150100B2EDC313FD0BBB08E9B8
:01150A0022BE
:1013D900E4FDFCC2B20000EDC313FDD2B20000006F
:1013E90030B2034305807F061215600CBC08E4AFD8
:0113F90005EE
:0113FA0022D0
:1010060012149640037F63227FCC1214EF7F4412A2
:1010160014EF7FE87E0312147812149640037F6360
:10102600227FCC1214EF7FBE1214EF1213D9AB0736
:101036001213D9EFFEEBFF7804CEA2E713CE13D836
:10104600F8FFC394F6EE6480947F400BD3EF947D53
:10105600EE6480948040037F6322C3EE64809480B4
:0510660050037F002291
:01106B002262
:0515C400D2B7D2B622EF
:101265008E278F288D291215AA7FA012138D12158E
:1012750080EF640160F8E527FF12138D121580EFEA
:10128500640160F8AF28E52812138D121580EF640C
:101295000160F8AF2912138D121580EF640160F813
:0A12A5001215B37F057E000215212B
:0411C3008E278F28BC
:1011C700E4F5291215AA7FA012138D121580EF647A
:1011D7000160F8E527FF12138D121580EF64016097
:1011E700F8AF28E52812138D121580EF640160F817
:1011F7001215AA7FA112138D121580EF640160F8F2
:0F1207001214B48F297F011215A01215B3AF294D
:0112160022B5
:0413FB007F147E00DD
:1013FF00D3EF9400EE940040147D6E7C00ED1D70D1
:0D140F00011CED4C70F7EF1F70E61E80E32E
:01141C0022AD
:10121700E4FBC2A3C2A2C2A1C2A030A3107F14FEE6
:101227001213FF30A3FD1213FB7B01802E30A20D9A
:101237001213FB20A2FD1213FB7B02801E30A10DAF
:101247001213FB20A1FD1213FB7B03800E30A00BB2
:0D1257001213FB20A0FD1213FB7B04AF035C
:011264002267
:1008070000040000020007000005000004000900C2
:1008170000060000040000020006000005000004B6
:10082700000600000007000500060000000700059D
:100837000006000000030007000500060000040092
:100847000600000700000400000300070000060080
:100857000004000002000600000500000300060077
:1008670000050000016201800162016301800162ED
:1008770001800162016301800162016301800162FD
:1008870001800162016301800162016301800162ED
:1008970001630180016201800162016301800162DD
:1008A70001630180016201800163016201630180CC
:1008B70001620180016301800162016301800162BD
:1008C70001800162016301800162016301800162AD
:1008D700018001620163018001620180016301629D
:1008E700018001630180016201630180016201806F
:1008F700018001620163018001620180016301627D
:10090700018001630180016201800162018001634E
:10091700018001620163018001620180018001623F
:100927000180016301620180016301800B5204AE03
:100937000A57054D0D260D951655056A09AD055D36
:1009470004AE0A5B0A4D0D251D250B540D6A0ADA04
:10095700095B149704970A4B0B4B06A506D41AB5E7
:1009670002B60957052F049706560D4A0EA50B55D3
:10097700056A1A5B025D092D0D2B0A950B5506CAF0
:100987000B55153504DA0A5D1457052D0A9A0E958D
:1009970006AA0AEA0AB504B60AAE0A5705260F26BA
:1009A7000D9505B5056A096D04DD04AD0A4D0D4DBC
:1009B7000D250D550B540B5A195A095B049B0A97C1
:1009C7000A4B0B2706A506D40AF40AB6095704AF43
:1009D700064B074A0EA506B5055C0AB6096D092E32
:1009E7000C950D4A1D8A0B55056A1A5B025D092D88
:1009F7000D2B0A951F1C1F1E1F1E1F1F1E1F1E1FAC
:10111A00EF25E02433F582E43409F583E493FA7485
:10112A000193FBEF9008079330011EB5051BED14E0
:10113A00FFAE02EBA807088005CEC313CE13D8F979
:10114A0030E0037F1E227F1D22ED14FFAE02EBA8C2
:10115A0007088005CEC313CE13D8F930E0047F1EEA
:04116A0080027F1D63
:01116E00225E
:06030E008F278D288B29CA
:10031400E4F530F52FF52EF52DEF24D0F534E43443
:1003240007F533C20078357C007D007BFF7A0979BC
:10033400FB7E007F0C120692E527701CE528C3940F
:1003440002400CE528B40210E529C394055009E4E1
:10035400F527752802752905E4FBEBC39527505151
:10036400EBFF7E0024D0FDED54037013EF24D0FF87
:10037400EE3407FE7C007D6412074CED4C7013EBE9
:1003840024D0FFE43407FE7C017D9012074CED4C31
:100394007006E530246E8004E530246DF530E52FD9
:1003A4003401F52FE4352EF52EE4352DF52D0B8093
:1003B400A9E4FBE52814FFEBC39F502174352BF807
:1003C400E6FFE4FCFDFEE5302FF530EE352FF52F8A
:1003D400ED352EF52EEC352DF52D0B80D6E5345468
:1003E40003700EAE33AF34FC7D6412074CED4C70D9
:1003F4000FAE33AF347C017D9012074CED4C701C72
:10040400E528D394024015E5302401F530E4352F76
:10041400F52FE4352EF52EE4352DF52DE4FCFDFE07
:10042400E5302529F530EE352FF52FED352EF52E57
:10043400EC352DF52DE47F23AB30AA2FA92EA82D62
:10044400C31207F6401AE5309423F530E52F9400E3
:10045400F52FE52E9400F52EE52D9400F52D800959
:0C046400E4F530F52FF52EF52DE4F53110
:10047000E53125E0246BF582E43408F583E493F557
:1004800041740193F542AE41FFE4FCFDAB30AA2F6D
:10049000A92EA82DC31207F6402AAE41AF42AB07E2
:1004A000AA06E5309BF530E52F9AF52FE52E94004E
:1004B000F52EE52D9400F52D0531E531C39464400A
:0404C000AF75316380
:1004C400E53124D0FFE43407AB2AAA2BA92C8FF002
:1004D4001207D7E53190080793F532AB2AAA2BA966
:0904E4002C9000027401120718AB
:1004ED00AB2AAA2BA92C9000021206B8FDC201AFAF
:1004FD003112111A8F41E4FCFDFEAB30AA2FA92E4B
:10050D00A82DC31207F6500302059EAF41AB07E5B8
:10051D00309BF530E52F9400F52FE52E9400F52E48
:10052D00E52D9400F52DAB2AAA2BA92C90000212D3
:10053D0006B8FD6532703E20003BD201AF3112117D
:10054D001A8F41E4FCFDFEAB30AA2FA92EA82DC3B6
:10055D001207F65004D2008038AF41AB07C3E53027
:10056D009BF530E52F9400F52FE52E9400F52EE543
:10057D002D9400F52DAB2AAA2BA92C900002740105
:10058D001206E59000021206B8D3940C5003020433
:01059D00ED70
:10059E00E53004AB2AAA2BA92C90000312071830C1
:1005AE0000099000021206B8FF80027F009000043E
:0405BE00EF02071829
:0515C900D296D292222F
:10141D00EF64636006EFD3947D4005D296C29222AD
:0F142D00EFC39D4005C296C29222D296D2922260
:0515CE00D296D292222A
:10152100EF1FAC0670011E4C600B007D027CC7DC16
:05153100FEDDFC80EB73
:011536002292
:0915AA00D2B7D2B6C2B6C2B72214
:0715B300C2B6D2B7D2B62286
:02138D00AD07AA
:10138F00E4FB7E007480A803088006CEA2E713CE8C
:10139F0013D8F8FFEDF582EF558224FF92B6D2B73E
:0613AF00C2B70BBB08DC15
:0113B5002215
:1014B400E4FFFED2B6D2B730B60DA8067480088019
:0D14C40002C313D8FC4207C2B70EBE08E8F1
:0114D10022F8
:0A15A000EF24FF92B6D2B7C2B722C3
:0B158000E4D2B6D2B7A2B633FFC2B768
:01158B00223D
:03000000020F7A72
:0C0F7A00787FE4F6D8FD75814C020FC1B1
:1005C200E709F608DFFA8046E709F208DFFA803E1B
:1005D20088828C83E709F0A3DFFA8032E309F60808
:1005E200DFFA8078E309F208DFFA807088828C8370
:1005F200E309F0A3DFFA806489828A83E0A3F60824
:10060200DFFA805889828A83E0A3F208DFFA804CFD
:1006120080D280FA80C680D4806980F280338010D4
:1006220080A680EA809A80A880DA80E280CA80333D
:1006320089828A83ECFAE493A3C8C582C8CCC583B5
:10064200CCF0A3C8C582C8CCC583CCDFE9DEE78085
:100652000D89828A83E493A3F608DFF9ECFAA9F004
:10066200EDFB2289828A83ECFAE0A3C8C582C8CC5A
:10067200C583CCF0A3C8C582C8CCC583CCDFEADE73
:10068200E880DB89828A83E493A3F208DFF980CCD5
:1006920088F0EF60010E4E60C388F0ED2402B404CE
:1006A2000050B9F582EB2402B4040050AF23234575
:0606B20082239006127382
:1006B800BB010CE58229F582E5833AF583E02250F7
:1006C80006E92582F8E622BBFE06E92582F8E22241
:0D06D800E58229F582E5833AF583E493225B
:1006E500BB010FF8E58229F582E5833AF583E02819
:1006F500F0225009C58229F8E58226F622BBFE09BB
:10070500C58229F8E22582F222F8EA2583F583E9F4
:0307150093282204
:10071800F8BB010DE58229F582E5833AF583E8F017
:10072800225006E92582C8F622BBFE05E92582C8C3
:02073800F222AB
:10073A00EF8DF0A4A8F0CF8CF0A428CE8DF0A42ED3
:02074A00FE228D
:10074C00BC000BBE0029EF8DF084FFADF022E4CC91
:10075C00F875F008EF2FFFEE33FEEC33FCEE9DEC5A
:10076C00984005FCEE9DFE0FD5F0E9E4CEFD22EDA0
:10077C00F8F5F0EE8420D21CFEADF075F008EF2FEA
:10078C00FFED33FD4007985006D5F0F222C398FDDB
:05079C000FD5F0EA2278
:1007A100C2D5EC30E709B2D5E4C39DFDE49CFCEE73
:1007B10030E715B2D5E4C39FFFE49EFE12074CC398
:1007C100E49DFDE49CFC800312074C30D507C3E493
:0607D1009FFFE49EFE22E2
:1007D700BB010A89828A83F0E5F0A3F0225006F76D
:0F07E70009A7F01922BBFE06F3E5F009F319226A
:1007F600EB9FF5F0EA9E42F0E99D42F0E89C45F059
:0108060022CF
:100F8600020B98E493A3F8E493A34003F68001F2DE
:100F960008DFF48029E493A3F85407240CC8C3336C
:100FA600C4540F4420C8834004F456800146F6DF3B
:100FB600E4800B0102040810204080901537E47E7F
:100FC600019360BCA3FF543F30E509541FFEE49330
:100FD600A360010ECF54C025E060A840B8E493A3F7
:100FE600FAE493A3F8E493A3C8C582C8CAC583CA22
:100FF600F0A3C8C582C8CAC583CADFE9DEE780BEDA
:01154B00009F
:00000001FF
